{
  "_format": "hh-sol-artifact-1",
  "contractName": "VaultImplementation",
  "sourceName": "contracts/VaultImplementation.sol",
  "abi": [
    {
      "inputs": [],
      "stateMutability": "nonpayable",
      "type": "constructor"
    },
    {
      "anonymous": false,
      "inputs": [
        {
          "indexed": false,
          "internalType": "uint256",
          "name": "vaultId",
          "type": "uint256"
        },
        {
          "indexed": false,
          "internalType": "address",
          "name": "propertyOwner",
          "type": "address"
        },
        {
          "indexed": false,
          "internalType": "address",
          "name": "propertyRenter",
          "type": "address"
        },
        {
          "indexed": false,
          "internalType": "uint256",
          "name": "initialDeposit",
          "type": "uint256"
        },
        {
          "indexed": false,
          "internalType": "uint256",
          "name": "acceptedAmount",
          "type": "uint256"
        }
      ],
      "name": "AmountToReturnAccepted",
      "type": "event"
    },
    {
      "anonymous": false,
      "inputs": [
        {
          "indexed": false,
          "internalType": "uint256",
          "name": "vaultId",
          "type": "uint256"
        },
        {
          "indexed": false,
          "internalType": "address",
          "name": "propertyOwner",
          "type": "address"
        },
        {
          "indexed": false,
          "internalType": "address",
          "name": "propertyRenter",
          "type": "address"
        },
        {
          "indexed": false,
          "internalType": "uint256",
          "name": "initialDeposit",
          "type": "uint256"
        },
        {
          "indexed": false,
          "internalType": "uint256",
          "name": "rejectedAmount",
          "type": "uint256"
        }
      ],
      "name": "AmountToReturnRejected",
      "type": "event"
    },
    {
      "anonymous": false,
      "inputs": [
        {
          "indexed": false,
          "internalType": "uint256",
          "name": "vaultId",
          "type": "uint256"
        },
        {
          "indexed": false,
          "internalType": "address",
          "name": "propertyOwner",
          "type": "address"
        },
        {
          "indexed": false,
          "internalType": "address",
          "name": "propertyRenter",
          "type": "address"
        },
        {
          "indexed": false,
          "internalType": "uint256",
          "name": "initialDeposit",
          "type": "uint256"
        },
        {
          "indexed": false,
          "internalType": "uint256",
          "name": "previousAmount",
          "type": "uint256"
        },
        {
          "indexed": false,
          "internalType": "uint256",
          "name": "newAmount",
          "type": "uint256"
        }
      ],
      "name": "AmountToReturnUpdate",
      "type": "event"
    },
    {
      "anonymous": false,
      "inputs": [
        {
          "indexed": false,
          "internalType": "uint256",
          "name": "vaultId",
          "type": "uint256"
        },
        {
          "indexed": false,
          "internalType": "address",
          "name": "propertyOwner",
          "type": "address"
        },
        {
          "indexed": false,
          "internalType": "address",
          "name": "propertyRenter",
          "type": "address"
        },
        {
          "indexed": false,
          "internalType": "uint256",
          "name": "deposit",
          "type": "uint256"
        }
      ],
      "name": "DepositStored",
      "type": "event"
    },
    {
      "anonymous": false,
      "inputs": [
        {
          "indexed": false,
          "internalType": "address",
          "name": "receiver",
          "type": "address"
        },
        {
          "indexed": false,
          "internalType": "uint256",
          "name": "amount",
          "type": "uint256"
        }
      ],
      "name": "FailedTransfer",
      "type": "event"
    },
    {
      "anonymous": false,
      "inputs": [
        {
          "indexed": false,
          "internalType": "uint256",
          "name": "vaultId",
          "type": "uint256"
        },
        {
          "indexed": false,
          "internalType": "address",
          "name": "propertyOwner",
          "type": "address"
        },
        {
          "indexed": false,
          "internalType": "address",
          "name": "propertyRenter",
          "type": "address"
        },
        {
          "indexed": false,
          "internalType": "uint256",
          "name": "initialDeposit",
          "type": "uint256"
        },
        {
          "indexed": false,
          "internalType": "uint256",
          "name": "ownerDepositChunk",
          "type": "uint256"
        }
      ],
      "name": "OwnerDepositChunkReturned",
      "type": "event"
    },
    {
      "anonymous": false,
      "inputs": [
        {
          "indexed": false,
          "internalType": "address",
          "name": "account",
          "type": "address"
        }
      ],
      "name": "Paused",
      "type": "event"
    },
    {
      "anonymous": false,
      "inputs": [
        {
          "indexed": false,
          "internalType": "address",
          "name": "sender",
          "type": "address"
        },
        {
          "indexed": false,
          "internalType": "uint256",
          "name": "amount",
          "type": "uint256"
        }
      ],
      "name": "Received",
      "type": "event"
    },
    {
      "anonymous": false,
      "inputs": [
        {
          "indexed": false,
          "internalType": "uint256",
          "name": "vaultId",
          "type": "uint256"
        },
        {
          "indexed": false,
          "internalType": "address",
          "name": "propertyOwner",
          "type": "address"
        },
        {
          "indexed": false,
          "internalType": "address",
          "name": "propertyRenter",
          "type": "address"
        },
        {
          "indexed": false,
          "internalType": "uint256",
          "name": "initialDeposit",
          "type": "uint256"
        },
        {
          "indexed": false,
          "internalType": "uint256",
          "name": "renterDepositChunk",
          "type": "uint256"
        }
      ],
      "name": "RenterDepositChunkReturned",
      "type": "event"
    },
    {
      "anonymous": false,
      "inputs": [
        {
          "indexed": false,
          "internalType": "address",
          "name": "account",
          "type": "address"
        }
      ],
      "name": "Unpaused",
      "type": "event"
    },
    {
      "stateMutability": "payable",
      "type": "fallback"
    },
    {
      "inputs": [],
      "name": "acceptProposedAmount",
      "outputs": [],
      "stateMutability": "nonpayable",
      "type": "function"
    },
    {
      "inputs": [],
      "name": "amountToReturn",
      "outputs": [
        {
          "internalType": "uint256",
          "name": "",
          "type": "uint256"
        }
      ],
      "stateMutability": "view",
      "type": "function"
    },
    {
      "inputs": [],
      "name": "claimOwnerDeposit",
      "outputs": [],
      "stateMutability": "nonpayable",
      "type": "function"
    },
    {
      "inputs": [],
      "name": "claimRenterDeposit",
      "outputs": [],
      "stateMutability": "nonpayable",
      "type": "function"
    },
    {
      "inputs": [],
      "name": "deposit",
      "outputs": [
        {
          "internalType": "uint256",
          "name": "",
          "type": "uint256"
        }
      ],
      "stateMutability": "view",
      "type": "function"
    },
    {
      "inputs": [],
      "name": "factory",
      "outputs": [
        {
          "internalType": "address",
          "name": "",
          "type": "address"
        }
      ],
      "stateMutability": "view",
      "type": "function"
    },
    {
      "inputs": [],
      "name": "generalAdmin",
      "outputs": [
        {
          "internalType": "address",
          "name": "",
          "type": "address"
        }
      ],
      "stateMutability": "view",
      "type": "function"
    },
    {
      "inputs": [],
      "name": "getVaultDetails",
      "outputs": [
        {
          "components": [
            {
              "internalType": "uint256",
              "name": "vaultId",
              "type": "uint256"
            },
            {
              "internalType": "address",
              "name": "propertyOwner",
              "type": "address"
            },
            {
              "internalType": "address",
              "name": "propertyRenter",
              "type": "address"
            },
            {
              "internalType": "uint256",
              "name": "rentalPeriodEnd",
              "type": "uint256"
            },
            {
              "internalType": "uint256",
              "name": "deposit",
              "type": "uint256"
            },
            {
              "internalType": "uint256",
              "name": "amountToReturn",
              "type": "uint256"
            },
            {
              "internalType": "bool",
              "name": "isDepositStored",
              "type": "bool"
            },
            {
              "internalType": "bool",
              "name": "isAmountAccepted",
              "type": "bool"
            },
            {
              "internalType": "bool",
              "name": "isRenterChunkReturned",
              "type": "bool"
            },
            {
              "internalType": "bool",
              "name": "isOwnerChunkReturned",
              "type": "bool"
            }
          ],
          "internalType": "struct VaultImplementation.VaultDetails",
          "name": "",
          "type": "tuple"
        }
      ],
      "stateMutability": "view",
      "type": "function"
    },
    {
      "inputs": [
        {
          "components": [
            {
              "internalType": "address",
              "name": "_factoryOwner",
              "type": "address"
            },
            {
              "internalType": "uint256",
              "name": "_vaultImplementationVersion",
              "type": "uint256"
            },
            {
              "internalType": "uint256",
              "name": "_vaultId",
              "type": "uint256"
            },
            {
              "internalType": "address",
              "name": "_propertyOwner",
              "type": "address"
            },
            {
              "internalType": "address",
              "name": "_propertyRenter",
              "type": "address"
            },
            {
              "internalType": "uint256",
              "name": "_rentalPeriodEnd",
              "type": "uint256"
            },
            {
              "internalType": "uint256",
              "name": "_deposit",
              "type": "uint256"
            }
          ],
          "internalType": "struct VaultImplementation.Initialization",
          "name": "initialization",
          "type": "tuple"
        }
      ],
      "name": "initialize",
      "outputs": [],
      "stateMutability": "nonpayable",
      "type": "function"
    },
    {
      "inputs": [],
      "name": "isAmountAccepted",
      "outputs": [
        {
          "internalType": "bool",
          "name": "",
          "type": "bool"
        }
      ],
      "stateMutability": "view",
      "type": "function"
    },
    {
      "inputs": [],
      "name": "isDepositStored",
      "outputs": [
        {
          "internalType": "bool",
          "name": "",
          "type": "bool"
        }
      ],
      "stateMutability": "view",
      "type": "function"
    },
    {
      "inputs": [],
      "name": "isOwnerChunkReturned",
      "outputs": [
        {
          "internalType": "bool",
          "name": "",
          "type": "bool"
        }
      ],
      "stateMutability": "view",
      "type": "function"
    },
    {
      "inputs": [],
      "name": "isRenterChunkReturned",
      "outputs": [
        {
          "internalType": "bool",
          "name": "",
          "type": "bool"
        }
      ],
      "stateMutability": "view",
      "type": "function"
    },
    {
      "inputs": [],
      "name": "pause",
      "outputs": [],
      "stateMutability": "nonpayable",
      "type": "function"
    },
    {
      "inputs": [],
      "name": "paused",
      "outputs": [
        {
          "internalType": "bool",
          "name": "",
          "type": "bool"
        }
      ],
      "stateMutability": "view",
      "type": "function"
    },
    {
      "inputs": [],
      "name": "propertyOwner",
      "outputs": [
        {
          "internalType": "address",
          "name": "",
          "type": "address"
        }
      ],
      "stateMutability": "view",
      "type": "function"
    },
    {
      "inputs": [],
      "name": "propertyRenter",
      "outputs": [
        {
          "internalType": "address",
          "name": "",
          "type": "address"
        }
      ],
      "stateMutability": "view",
      "type": "function"
    },
    {
      "inputs": [],
      "name": "rejectProposedAmount",
      "outputs": [],
      "stateMutability": "nonpayable",
      "type": "function"
    },
    {
      "inputs": [],
      "name": "rentalPeriodEnd",
      "outputs": [
        {
          "internalType": "uint256",
          "name": "",
          "type": "uint256"
        }
      ],
      "stateMutability": "view",
      "type": "function"
    },
    {
      "inputs": [
        {
          "internalType": "uint256",
          "name": "proposedAmount",
          "type": "uint256"
        }
      ],
      "name": "setAmountToReturn",
      "outputs": [],
      "stateMutability": "nonpayable",
      "type": "function"
    },
    {
      "inputs": [],
      "name": "storeDeposit",
      "outputs": [],
      "stateMutability": "payable",
      "type": "function"
    },
    {
      "inputs": [],
      "name": "unpause",
      "outputs": [],
      "stateMutability": "nonpayable",
      "type": "function"
    },
    {
      "inputs": [],
      "name": "vaultId",
      "outputs": [
        {
          "internalType": "uint256",
          "name": "",
          "type": "uint256"
        }
      ],
      "stateMutability": "view",
      "type": "function"
    },
    {
      "inputs": [],
      "name": "vaultImplementationVersion",
      "outputs": [
        {
          "internalType": "uint256",
          "name": "",
          "type": "uint256"
        }
      ],
      "stateMutability": "view",
      "type": "function"
    },
    {
      "stateMutability": "payable",
      "type": "receive"
    }
  ],
  "bytecode": "0x608060405234801561001057600080fd5b5060008060006101000a81548160ff0219169083151502179055506001600060016101000a81548160ff021916908315150217905550612a52806100556000396000f3fe60806040526004361061014f5760003560e01c80639f7201b2116100b6578063e398069a1161006f578063e398069a14610435578063e500590114610460578063ecea2d411461048b578063f0ab569b146104b6578063f446c38f146104e1578063feaa09941461050c5761018f565b80639f7201b214610368578063a551ca5f14610393578063a9c71771146103be578063c3ff81b3146103d5578063c45a0155146103df578063d0e30db01461040a5761018f565b80635c975abb116101085780635c975abb146102a257806360d7c70b146102cd5780637116fe30146102f8578063779584f3146103235780637edfb81a1461033a5780638456cb59146103515761018f565b806308039f92146101ca57806330dc99c1146101e157806333194c0a1461020a5780633f4ba83a14610235578063533092ef1461024c57806357b0bb73146102775761018f565b3661018f577f88a5966d370b9919b20f3e2c13ff65706f196a4e32cc2c12bf57088f885258743334604051610185929190611c89565b60405180910390a1005b7f88a5966d370b9919b20f3e2c13ff65706f196a4e32cc2c12bf57088f8852587433346040516101c0929190611c89565b60405180910390a1005b3480156101d657600080fd5b506101df610535565b005b3480156101ed57600080fd5b5061020860048036038101906102039190611cdb565b6106f6565b005b34801561021657600080fd5b5061021f6109d1565b60405161022c9190611d08565b60405180910390f35b34801561024157600080fd5b5061024a6109d7565b005b34801561025857600080fd5b50610261610a79565b60405161026e9190611e28565b60405180910390f35b34801561028357600080fd5b5061028c610b88565b6040516102999190611e44565b60405180910390f35b3480156102ae57600080fd5b506102b7610bae565b6040516102c49190611e6e565b60405180910390f35b3480156102d957600080fd5b506102e2610bc4565b6040516102ef9190611e6e565b60405180910390f35b34801561030457600080fd5b5061030d610bd7565b60405161031a9190611d08565b60405180910390f35b34801561032f57600080fd5b50610338610bdd565b005b34801561034657600080fd5b5061034f610db9565b005b34801561035d57600080fd5b5061036661103a565b005b34801561037457600080fd5b5061037d6110dc565b60405161038a9190611e6e565b60405180910390f35b34801561039f57600080fd5b506103a86110ef565b6040516103b59190611e44565b60405180910390f35b3480156103ca57600080fd5b506103d3611115565b005b6103dd6113de565b005b3480156103eb57600080fd5b506103f461160b565b6040516104019190611e44565b60405180910390f35b34801561041657600080fd5b5061041f611631565b60405161042c9190611d08565b60405180910390f35b34801561044157600080fd5b5061044a611637565b6040516104579190611e6e565b60405180910390f35b34801561046c57600080fd5b5061047561164a565b6040516104829190611d08565b60405180910390f35b34801561049757600080fd5b506104a0611650565b6040516104ad9190611d08565b60405180910390f35b3480156104c257600080fd5b506104cb611656565b6040516104d89190611e6e565b60405180910390f35b3480156104ed57600080fd5b506104f6611669565b6040516105039190611e44565b60405180910390f35b34801561051857600080fd5b50610533600480360381019061052e9190611eb5565b61168f565b005b600760009054906101000a900473ffffffffffffffffffffffffffffffffffffffff1673ffffffffffffffffffffffffffffffffffffffff163373ffffffffffffffffffffffffffffffffffffffff1614806105df5750600073ffffffffffffffffffffffffffffffffffffffff16600760009054906101000a900473ffffffffffffffffffffffffffffffffffffffff1673ffffffffffffffffffffffffffffffffffffffff16145b61061e576040517f08c379a000000000000000000000000000000000000000000000000000000000815260040161061590611f65565b60405180910390fd5b600060085403610663576040517f08c379a000000000000000000000000000000000000000000000000000000000815260040161065a90611ff7565b60405180910390fd5b61066b611908565b7f6b711fbe50910ed59fee7dea374c0d0fdeb04e7a8bb26b46050a7b8ae53579e7600354600660009054906101000a900473ffffffffffffffffffffffffffffffffffffffff16600760009054906101000a900473ffffffffffffffffffffffffffffffffffffffff166005546008546040516106ec959493929190612017565b60405180910390a1565b60001515600060019054906101000a900460ff1615151461074c576040517f08c379a0000000000000000000000000000000000000000000000000000000008152600401610743906120dc565b60405180910390fd5b600073ffffffffffffffffffffffffffffffffffffffff16600660009054906101000a900473ffffffffffffffffffffffffffffffffffffffff1673ffffffffffffffffffffffffffffffffffffffff16146107dd576040517f08c379a00000000000000000000000000000000000000000000000000000000081526004016107d490612148565b60405180910390fd5b8060800160208101906107f09190612194565b600073ffffffffffffffffffffffffffffffffffffffff168173ffffffffffffffffffffffffffffffffffffffff160361085f576040517f08c379a00000000000000000000000000000000000000000000000000000000081526004016108569061220d565b60405180910390fd5b610867611908565b81600001602081019061087a9190612194565b600060026101000a81548173ffffffffffffffffffffffffffffffffffffffff021916908373ffffffffffffffffffffffffffffffffffffffff16021790555033600160006101000a81548173ffffffffffffffffffffffffffffffffffffffff021916908373ffffffffffffffffffffffffffffffffffffffff160217905550816020013560028190555081604001356003819055508160600160208101906109249190612194565b600660006101000a81548173ffffffffffffffffffffffffffffffffffffffff021916908373ffffffffffffffffffffffffffffffffffffffff1602179055508160800160208101906109779190612194565b600760006101000a81548173ffffffffffffffffffffffffffffffffffffffff021916908373ffffffffffffffffffffffffffffffffffffffff1602179055508160a001356004819055508160c001356005819055505050565b60035481565b600060029054906101000a900473ffffffffffffffffffffffffffffffffffffffff1673ffffffffffffffffffffffffffffffffffffffff163373ffffffffffffffffffffffffffffffffffffffff1614610a67576040517f08c379a0000000000000000000000000000000000000000000000000000000008152600401610a5e90612279565b60405180910390fd5b610a6f611952565b610a7761199b565b565b610a81611ba8565b6040518061014001604052806003548152602001600660009054906101000a900473ffffffffffffffffffffffffffffffffffffffff1673ffffffffffffffffffffffffffffffffffffffff168152602001600760009054906101000a900473ffffffffffffffffffffffffffffffffffffffff1673ffffffffffffffffffffffffffffffffffffffff168152602001600454815260200160055481526020016008548152602001600960009054906101000a900460ff1615158152602001600960019054906101000a900460ff1615158152602001600960029054906101000a900460ff1615158152602001600960039054906101000a900460ff161515815250905090565b600760009054906101000a900473ffffffffffffffffffffffffffffffffffffffff1681565b60008060009054906101000a900460ff16905090565b600960019054906101000a900460ff1681565b60025481565b600760009054906101000a900473ffffffffffffffffffffffffffffffffffffffff1673ffffffffffffffffffffffffffffffffffffffff163373ffffffffffffffffffffffffffffffffffffffff161480610c875750600073ffffffffffffffffffffffffffffffffffffffff16600760009054906101000a900473ffffffffffffffffffffffffffffffffffffffff1673ffffffffffffffffffffffffffffffffffffffff16145b610cc6576040517f08c379a0000000000000000000000000000000000000000000000000000000008152600401610cbd90611f65565b60405180910390fd5b600060085403610d0b576040517f08c379a0000000000000000000000000000000000000000000000000000000008152600401610d0290611ff7565b60405180910390fd5b610d13611908565b6001600960016101000a81548160ff0219169083151502179055507f51821fb080d4e7c8ad4ea23ea5f3ca50cab58541b28348b2d2613143d9f64356600354600660009054906101000a900473ffffffffffffffffffffffffffffffffffffffff16600760009054906101000a900473ffffffffffffffffffffffffffffffffffffffff16600554600854604051610daf959493929190612017565b60405180910390a1565b600660009054906101000a900473ffffffffffffffffffffffffffffffffffffffff1673ffffffffffffffffffffffffffffffffffffffff163373ffffffffffffffffffffffffffffffffffffffff1614610e49576040517f08c379a0000000000000000000000000000000000000000000000000000000008152600401610e409061230b565b60405180910390fd5b60011515600960009054906101000a900460ff16151514610e9f576040517f08c379a0000000000000000000000000000000000000000000000000000000008152600401610e9690612377565b60405180910390fd5b60011515600960019054906101000a900460ff16151514610ef5576040517f08c379a0000000000000000000000000000000000000000000000000000000008152600401610eec906123e3565b60405180910390fd5b60001515600960039054906101000a900460ff16151514610f4b576040517f08c379a0000000000000000000000000000000000000000000000000000000008152600401610f429061244f565b60405180910390fd5b610f53611908565b6001600960036101000a81548160ff0219169083151502179055506000600854600554610f80919061249e565b9050610f8c33826119fd565b7fb49949a4c259cfa0bfeaff880d689ec986d24a1d76c5925edc395580bb380591600354600660009054906101000a900473ffffffffffffffffffffffffffffffffffffffff16600760009054906101000a900473ffffffffffffffffffffffffffffffffffffffff166005548560405161100b959493929190612017565b60405180910390a160011515600960029054906101000a900460ff1615150361103757611036611b3e565b5b50565b600060029054906101000a900473ffffffffffffffffffffffffffffffffffffffff1673ffffffffffffffffffffffffffffffffffffffff163373ffffffffffffffffffffffffffffffffffffffff16146110ca576040517f08c379a00000000000000000000000000000000000000000000000000000000081526004016110c190612279565b60405180910390fd5b6110d2611908565b6110da611b3e565b565b600960039054906101000a900460ff1681565b600060029054906101000a900473ffffffffffffffffffffffffffffffffffffffff1681565b600760009054906101000a900473ffffffffffffffffffffffffffffffffffffffff1673ffffffffffffffffffffffffffffffffffffffff163373ffffffffffffffffffffffffffffffffffffffff1614806111bf5750600073ffffffffffffffffffffffffffffffffffffffff16600760009054906101000a900473ffffffffffffffffffffffffffffffffffffffff1673ffffffffffffffffffffffffffffffffffffffff16145b6111fe576040517f08c379a00000000000000000000000000000000000000000000000000000000081526004016111f590611f65565b60405180910390fd5b60011515600960009054906101000a900460ff16151514611254576040517f08c379a000000000000000000000000000000000000000000000000000000000815260040161124b90612377565b60405180910390fd5b60011515600960019054906101000a900460ff161515146112aa576040517f08c379a00000000000000000000000000000000000000000000000000000000081526004016112a1906123e3565b60405180910390fd5b60001515600960029054906101000a900460ff16151514611300576040517f08c379a00000000000000000000000000000000000000000000000000000000081526004016112f79061251e565b60405180910390fd5b611308611908565b6001600960026101000a81548160ff02191690831515021790555061132f336008546119fd565b7f2f56587b9b54f5810edd15936c9024a3fd1132a15867058c16e1a3778583b493600354600660009054906101000a900473ffffffffffffffffffffffffffffffffffffffff16600760009054906101000a900473ffffffffffffffffffffffffffffffffffffffff166005546008546040516113b0959493929190612017565b60405180910390a160011515600960039054906101000a900460ff161515036113dc576113db611b3e565b5b565b600760009054906101000a900473ffffffffffffffffffffffffffffffffffffffff1673ffffffffffffffffffffffffffffffffffffffff163373ffffffffffffffffffffffffffffffffffffffff1614806114885750600073ffffffffffffffffffffffffffffffffffffffff16600760009054906101000a900473ffffffffffffffffffffffffffffffffffffffff1673ffffffffffffffffffffffffffffffffffffffff16145b6114c7576040517f08c379a00000000000000000000000000000000000000000000000000000000081526004016114be90611f65565b60405180910390fd5b60001515600960009054906101000a900460ff1615151461151d576040517f08c379a00000000000000000000000000000000000000000000000000000000081526004016115149061258a565b60405180910390fd5b6005543414611561576040517f08c379a0000000000000000000000000000000000000000000000000000000008152600401611558906125f6565b60405180910390fd5b611569611908565b6001600960006101000a81548160ff0219169083151502179055507fa010dabc4b9125ef62c52003e2ce0f7fa27c293e1f10d567d09ff41c6b172360600354600660009054906101000a900473ffffffffffffffffffffffffffffffffffffffff16600760009054906101000a900473ffffffffffffffffffffffffffffffffffffffff166005546040516116019493929190612616565b60405180910390a1565b600160009054906101000a900473ffffffffffffffffffffffffffffffffffffffff1681565b60055481565b600960029054906101000a900460ff1681565b60085481565b60045481565b600960009054906101000a900460ff1681565b600660009054906101000a900473ffffffffffffffffffffffffffffffffffffffff1681565b60045442116116d3576040517f08c379a00000000000000000000000000000000000000000000000000000000081526004016116ca906126a7565b60405180910390fd5b600660009054906101000a900473ffffffffffffffffffffffffffffffffffffffff1673ffffffffffffffffffffffffffffffffffffffff163373ffffffffffffffffffffffffffffffffffffffff1614611763576040517f08c379a000000000000000000000000000000000000000000000000000000000815260040161175a9061230b565b60405180910390fd5b60011515600960009054906101000a900460ff161515146117b9576040517f08c379a00000000000000000000000000000000000000000000000000000000081526004016117b090612377565b60405180910390fd5b60001515600960019054906101000a900460ff1615151461180f576040517f08c379a000000000000000000000000000000000000000000000000000000000815260040161180690612739565b60405180910390fd5b808060001115801561182357506005548111155b611862576040517f08c379a0000000000000000000000000000000000000000000000000000000008152600401611859906127a5565b60405180910390fd5b61186a611908565b60006008549050826008819055507f0561865f6371518af1b2700ac4a68fe20d6a5d947dfa6db77cac69a64620d1e1600354600660009054906101000a900473ffffffffffffffffffffffffffffffffffffffff16600760009054906101000a900473ffffffffffffffffffffffffffffffffffffffff16600554856008546040516118fb969594939291906127c5565b60405180910390a1505050565b611910610bae565b15611950576040517f08c379a000000000000000000000000000000000000000000000000000000000815260040161194790612872565b60405180910390fd5b565b61195a610bae565b611999576040517f08c379a0000000000000000000000000000000000000000000000000000000008152600401611990906128de565b60405180910390fd5b565b6119a3611952565b60008060006101000a81548160ff0219169083151502179055507f5db9ee0a495bf2e6ff9c91a7834c1ba4fdd244a5e8aa4e537bd38aeae4b073aa6119e6611ba0565b6040516119f39190611e44565b60405180910390a1565b600047905081811015611a4c576000611a4b576040517f08c379a0000000000000000000000000000000000000000000000000000000008152600401611a429061294a565b60405180910390fd5b5b60008373ffffffffffffffffffffffffffffffffffffffff1683604051611a729061299b565b60006040518083038185875af1925050503d8060008114611aaf576040519150601f19603f3d011682016040523d82523d6000602084013e611ab4565b606091505b5050905080611b38577f3506b32cea6b36a739c1c2a71a9e1b3d6222104389c07219059fa6eb6d2e05638484604051611aee929190611c89565b60405180910390a16000611b37576040517f08c379a0000000000000000000000000000000000000000000000000000000008152600401611b2e906129fc565b60405180910390fd5b5b50505050565b611b46611908565b60016000806101000a81548160ff0219169083151502179055507f62e78cea01bee320cd4e420270b5ea74000d11b0c9f74754ebdbfc544b05a258611b89611ba0565b604051611b969190611e44565b60405180910390a1565b600033905090565b60405180610140016040528060008152602001600073ffffffffffffffffffffffffffffffffffffffff168152602001600073ffffffffffffffffffffffffffffffffffffffff1681526020016000815260200160008152602001600081526020016000151581526020016000151581526020016000151581526020016000151581525090565b600073ffffffffffffffffffffffffffffffffffffffff82169050919050565b6000611c5a82611c2f565b9050919050565b611c6a81611c4f565b82525050565b6000819050919050565b611c8381611c70565b82525050565b6000604082019050611c9e6000830185611c61565b611cab6020830184611c7a565b9392505050565b600080fd5b600080fd5b600060e08284031215611cd257611cd1611cb7565b5b81905092915050565b600060e08284031215611cf157611cf0611cb2565b5b6000611cff84828501611cbc565b91505092915050565b6000602082019050611d1d6000830184611c7a565b92915050565b611d2c81611c70565b82525050565b611d3b81611c4f565b82525050565b60008115159050919050565b611d5681611d41565b82525050565b61014082016000820151611d736000850182611d23565b506020820151611d866020850182611d32565b506040820151611d996040850182611d32565b506060820151611dac6060850182611d23565b506080820151611dbf6080850182611d23565b5060a0820151611dd260a0850182611d23565b5060c0820151611de560c0850182611d4d565b5060e0820151611df860e0850182611d4d565b50610100820151611e0d610100850182611d4d565b50610120820151611e22610120850182611d4d565b50505050565b600061014082019050611e3e6000830184611d5c565b92915050565b6000602082019050611e596000830184611c61565b92915050565b611e6881611d41565b82525050565b6000602082019050611e836000830184611e5f565b92915050565b611e9281611c70565b8114611e9d57600080fd5b50565b600081359050611eaf81611e89565b92915050565b600060208284031215611ecb57611eca611cb2565b5b6000611ed984828501611ea0565b91505092915050565b600082825260208201905092915050565b7f5468652063616c6c6572206973206e6f74207468652070726f7065727479207260008201527f656e746572000000000000000000000000000000000000000000000000000000602082015250565b6000611f4f602583611ee2565b9150611f5a82611ef3565b604082019050919050565b60006020820190508181036000830152611f7e81611f42565b9050919050565b7f4e6f20616d6f756e7420746f2072657475726e20686173206265656e2070726f60008201527f706f736564000000000000000000000000000000000000000000000000000000602082015250565b6000611fe1602583611ee2565b9150611fec82611f85565b604082019050919050565b6000602082019050818103600083015261201081611fd4565b9050919050565b600060a08201905061202c6000830188611c7a565b6120396020830187611c61565b6120466040830186611c61565b6120536060830185611c7a565b6120606080830184611c7a565b9695505050505050565b7f54686520696d706c656d656e746174696f6e20636f6e74726163742063616e2760008201527f7420626520696e697469616c697a656400000000000000000000000000000000602082015250565b60006120c6603083611ee2565b91506120d18261206a565b604082019050919050565b600060208201905081810360008301526120f5816120b9565b9050919050565b7f436f6e747261637420616c726561647920696e697469616c697a656400000000600082015250565b6000612132601c83611ee2565b915061213d826120fc565b602082019050919050565b6000602082019050818103600083015261216181612125565b9050919050565b61217181611c4f565b811461217c57600080fd5b50565b60008135905061218e81612168565b92915050565b6000602082840312156121aa576121a9611cb2565b5b60006121b88482850161217f565b91505092915050565b7f52656e7465722061646472657373206e65656465640000000000000000000000600082015250565b60006121f7601583611ee2565b9150612202826121c1565b602082019050919050565b60006020820190508181036000830152612226816121ea565b9050919050565b7f43616c6c6572206973206e6f74207468652061646d696e000000000000000000600082015250565b6000612263601783611ee2565b915061226e8261222d565b602082019050919050565b6000602082019050818103600083015261229281612256565b9050919050565b7f5468652063616c6c6572206973206e6f74207468652070726f7065727479206f60008201527f776e657200000000000000000000000000000000000000000000000000000000602082015250565b60006122f5602483611ee2565b915061230082612299565b604082019050919050565b60006020820190508181036000830152612324816122e8565b9050919050565b7f4e6f206465706f73697420686173206265656e2073746f726564000000000000600082015250565b6000612361601a83611ee2565b915061236c8261232b565b602082019050919050565b6000602082019050818103600083015261239081612354565b9050919050565b7f4e6f20616d6f756e7420686173206265656e2061636365707465640000000000600082015250565b60006123cd601b83611ee2565b91506123d882612397565b602082019050919050565b600060208201905081810360008301526123fc816123c0565b9050919050565b7f4f776e657220616c726561647920636c61696d656420686973206368756e6b00600082015250565b6000612439601f83611ee2565b915061244482612403565b602082019050919050565b600060208201905081810360008301526124688161242c565b9050919050565b7f4e487b7100000000000000000000000000000000000000000000000000000000600052601160045260246000fd5b60006124a982611c70565b91506124b483611c70565b92508282039050818111156124cc576124cb61246f565b5b92915050565b7f52656e74657220616c726561647920636c61696d656420686973206368756e6b600082015250565b6000612508602083611ee2565b9150612513826124d2565b602082019050919050565b60006020820190508181036000830152612537816124fb565b9050919050565b7f546865206465706f73697420697320616c72656164792073746f726564000000600082015250565b6000612574601d83611ee2565b915061257f8261253e565b602082019050919050565b600060208201905081810360008301526125a381612567565b9050919050565b7f496e636f727265637420616d6f756e742073656e740000000000000000000000600082015250565b60006125e0601583611ee2565b91506125eb826125aa565b602082019050919050565b6000602082019050818103600083015261260f816125d3565b9050919050565b600060808201905061262b6000830187611c7a565b6126386020830186611c61565b6126456040830185611c61565b6126526060830184611c7a565b95945050505050565b7f52656e74616c20706572696f64206e6f7420656e646564000000000000000000600082015250565b6000612691601783611ee2565b915061269c8261265b565b602082019050919050565b600060208201905081810360008301526126c081612684565b9050919050565b7f416e20616d6f756e742068617320616c7265616479206265656e20616363657060008201527f7465640000000000000000000000000000000000000000000000000000000000602082015250565b6000612723602383611ee2565b915061272e826126c7565b604082019050919050565b6000602082019050818103600083015261275281612716565b9050919050565b7f496e636f72726563742070726f706f73656420616d6f756e7400000000000000600082015250565b600061278f601983611ee2565b915061279a82612759565b602082019050919050565b600060208201905081810360008301526127be81612782565b9050919050565b600060c0820190506127da6000830189611c7a565b6127e76020830188611c61565b6127f46040830187611c61565b6128016060830186611c7a565b61280e6080830185611c7a565b61281b60a0830184611c7a565b979650505050505050565b7f5061757361626c653a2070617573656400000000000000000000000000000000600082015250565b600061285c601083611ee2565b915061286782612826565b602082019050919050565b6000602082019050818103600083015261288b8161284f565b9050919050565b7f5061757361626c653a206e6f7420706175736564000000000000000000000000600082015250565b60006128c8601483611ee2565b91506128d382612892565b602082019050919050565b600060208201905081810360008301526128f7816128bb565b9050919050565b7f4e6f7420656e6f75676820696e20636f6e74726163742062616c616e63650000600082015250565b6000612934601e83611ee2565b915061293f826128fe565b602082019050919050565b6000602082019050818103600083015261296381612927565b9050919050565b600081905092915050565b50565b600061298560008361296a565b915061299082612975565b600082019050919050565b60006129a682612978565b9150819050919050565b7f5472616e73666572206661696c65642e00000000000000000000000000000000600082015250565b60006129e6601083611ee2565b91506129f1826129b0565b602082019050919050565b60006020820190508181036000830152612a15816129d9565b905091905056fea264697066735822122095e36dfb3a95c1779dac31b407a43ecd18b06f88eca81609eab9f53e9913f04464736f6c63430008110033",
  "linkReferences": {},
  "deployedLinkReferences": {}
}